:020000040000FA
:060000000A128A110C280F
:10000800FE00030EF0000A08F1000A168A11FA2D04
:100018000A128A110F288313C230FD000730FE0030
:10002800DE30FF00A03084000A168A11FE240A126E
:100038008A110A128A1503200A128A11ED000A127F
:100048008A1504200A128A11EE0083160313C701C9
:10005800C801C901CA0183120313E001E101E201E9
:10006800E301E401E501E601E701E801E901EA014C
:10007800F901FA01FB0183010A128A15822C831205
:100088000313DF000A168A117B260A128A1112301E
:10009800831203136B06031D52285328ED290A16F1
:1000A8008A11ED240A128A114D30F6009130F700BA
:1000B8008030F8000A168A11CB250A128A117B08AB
:1000C80083120313D8005807A03E84008313000846
:1000D800F600840A00088403F7008630F8000A1640
:1000E8008A11CB250A128A116830F6009130F70080
:1000F800C030F8000A168A11CB250A128A11C630B8
:10010800F8000A30F2000030F30083120313690884
:10011800D800D9015808F4005908F5000A128A15C0
:1001280005200A128A117208303E0A168A110D2516
:100138000A128A11C730F8000A30F2000030F300C2
:10014800831203136908D800D9015808F400590824
:10015800F5000A168A11D1260A128A117208303E51
:100168000A168A110D250A128A11C830F8003A3089
:100178000A168A110D250A128A11C930F8000A30A8
:10018800F2000030F300831203136A08D800D90183
:100198005808F4005908F5000A128A1505200A12B1
:1001A8008A117208303E0A168A110D250A128A1120
:1001B800CA30F8000A30F2000030F300831203134B
:1001C8006A08D800D9015808F4005908F5000A1639
:1001D8008A11D1260A128A117208303E0A168A112B
:1001E8000D250A128A114530F6009130F700953036
:1001F800F8000A168A11CB250A128A1133308312A5
:100208000313DA00BB30D900DF30D800D80B0A2935
:10021800D90B0A29DA0B0A290A168A11ED240A12BF
:100228008A11DF30F6009030F7008030F8000A16A7
:100238008A11CB250A128A118030F6009130F70016
:10024800C030F8000A168A11CB250A128A113430F8
:10025800F6009030F700D030F8000A168A11CB2546
:100268000A128A11831203136908D800D9015808A1
:10027800F2005908F3003C30F4000030F5000A168B
:100288008A117D250A128A11831203136A087207DC
:10029800E2000030031801307307E3006308E1004F
:1002A8006208E0006208F2006308F3000030F31B04
:1002B800FF30F400F50001300A128A1128270A12CB
:1002C8008A11750883120313B1007408B00073080B
:1002D800AF007208AE003E30AD00CC30AC00CC3080
:1002E800AB00CD30AA000A128A11E6230A128A113D
:1002F800831203132D08C7002C08C6002B08C5005D
:100308002A08C4000A168A118A270A128A11831237
:1003180003134508E7004408E6006208F200630892
:10032800F3000030F31BFF30F400F50001300A122F
:100338008A1128270A128A11750883120313B1003B
:100348007408B0007308AF007208AE003D30AD000D
:10035800F530AC00C230AB008F30AA000A128A1107
:10036800E6230A128A11831203132D08C7002C08EA
:10037800C6002B08C5002A08C4000A168A118A2755
:100388000A128A11831203134508E5004408E400A1
:100398006609D8006709D900D80A0319D90A640878
:1003A8005802DA006508031C650A5902DB00620876
:1003B8005A0783160313C70083120313630803182D
:1003C800630A5B0783160313C8008312031312150D
:1003D80007151F305F06031DF229F329F7291211AB
:1003E80007110530EC006908D800D9015808F20057
:1003F8005908F3003C30F4000030F5000A168A1161
:100408007D250A128A11831203136A087207E20013
:100418000030031801307307E30008307B0203182B
:10042800162A172A782A66086002D8006708031C6B
:10043800670A6102D9006308803ADA005908803AED
:100448005A02031D292A58086202031C2C2A2D2A45
:10045800392AFB30F6009030F7008B30F8000A1686
:100468008A11CB250A128A112D2B831203136609D0
:10047800D8006709D900D80A0319D90A64085802AC
:10048800DA006508031C650A5902DB0060085A0790
:10049800DC0061080318610A5B07DD006308803A25
:1004A800DE005D08803A5E02031D5C2A5C08620279
:1004B800031C5F2A602A6C2A6E30F6009130F70020
:1004C8008B30F8000A168A11CB250A128A112D2BB7
:1004D8006230F6009130F7008B30F8000A168A1166
:1004E800CB250A128A112D2B08307B06031D7D2A85
:1004F8007E2A102B6208F2006308F3000030F31B19
:10050800FF30F400F50001300A128A1128270A1278
:100518008A11750883120313CF007408CE0073087C
:10052800CD007208CC006008F2006108F3000030CA
:10053800F31BFF30F400F50001300A128A11282756
:100548000A128A11750883120313CB007408CA00B3
:100558007308C9007208C8006008F2006108F30057
:100568000030F31BFF30F400F50001300A128A1145
:1005780028270A128A11750883120313B100740818
:10058800B0007308AF007208AE003E30AD00CC304A
:10059800AC00CC30AB00CD30AA000A128A11E62399
:1005A8000A128A11831203132D08C7002C08C600EB
:1005B8002B08C5002A08C4000A168A1159250A12F0
:1005C8008A11831203134708D3004608D20045084E
:1005D800D1004408D0000A128A15FF200A128A1195
:1005E800031CF72AF82A042B6E30F6009130F70026
:1005F8008B30F8000A168A11CB250A128A112D2B86
:100608006230F6009130F7008B30F8000A168A1134
:10061800CB250A128A112D2B09307B06031D152BB9
:10062800162B222B6E30F6009130F7008B30F80035
:100638000A168A11CB250A128A112D2BFB30F600D7
:100648009030F7008B30F8000A168A11CB250A1271
:100658008A11C630F8000A30F2000030F300831225
:1006680003136908D800D9015808F4005908F5009F
:100678000A128A1505200A128A117208303E0A16D3
:100688008A110D250A128A11C730F8000A30F200C3
:100698000030F300831203136908D800D901580801
:1006A800F4005908F5000A168A11D1260A128A118F
:1006B8007208303E0A168A110D250A128A11C830AE
:1006C800F8003A300A168A110D250A128A11C93023
:1006D800F8000A30F2000030F300831203136A08AE
:1006E800D800D9015808F4005908F5000A128A15EB
:1006F80005200A128A117208303E0A168A110D2541
:100708000A128A11CA30F8000A30F2000030F300E9
:10071800831203136A08D800D9015808F40059084D
:10072800F5000A168A11D1260A128A117208303E7B
:100738000A168A110D250A128A11831203136A08F0
:10074800031DA72BA82BE52B6908031DAC2BAD2B8C
:10075800E52B1211071107150A168A11ED240A1242
:100768008A116630F6009030F7008030F8000A16DB
:100778008A11CB250A128A118630F6009030F700CC
:10078800C030F8000A168A11CB250A128A113330B4
:1007980083120313DA00BB30D900DF30D800D80B3E
:1007A800D32BD90BD32BDA0BD32B831203130711BB
:1007B8000130EC001030EB000A168A11ED240A1201
:1007C8008A110800831203132D08B7008030B7057B
:1007D8002D08B2003207BD00AC1FF32BF42BF52B0C
:1007E8003D143D080319F92BFA2B092C3D0A031D6A
:1007F800FE2BFF2B072C0030AD000030AC00003082
:10080800AB000030AA00AC17112C0030AD0000304E
:10081800AC000030AB000030AA0031088039B706C0
:100828003108B2003207B800B01F1B2C1C2C1D2C3D
:10083800381438080319212C222C312C380A031DAE
:10084800262C272C2F2C0030B1000030B0000030AF
:10085800AF000030AE00B017392C0030B1000030C6
:10086800B0000030AF000030AE00380803193D2C4E
:100878003E2C432C3D08031D422C432C4C2C0030AD
:10088800AD000030AC000030AB000030AA00272FCC
:100898002A08F20030080A168A11A2250A128A11BB
:1008A800730883120313C3007208C2004208B2001F
:1008B800B301B401B5013508BC003408BB003308E6
:1008C800BA003208B9004308B200B301B401B50157
:1008D8003508C1003408C0003308BF003208BE0024
:1008E8002B08F2002F080A168A11A2250A128A116B
:1008F800730883120313C3007208C2004208B200CF
:10090800B301B401B5013208B9073308031103185C
:10091800013E0319902CBA07340803110318013E4D
:100928000319972CBB07350803110318013E031957
:100938009E2CBC074308B200B301B401B5013208CC
:10094800BE07330803110318013E0319AC2CBF0777
:10095800340803110318013E0319B32CC0073508E6
:1009680003110318013E0319BA2CC1072C08F20021
:100978002E080A168A11A2250A128A1173088312F0
:100988000313C3007208C2004208B200B301B401E5
:10099800B5013208B907330803110318013E0319DA
:1009A800D62CBA07340803110318013E0319DD2CAD
:1009B800BB07350803110318013E0319E42CBC07D3
:1009C8004308B200B301B401B5013208BE073308C9
:1009D80003110318013E0319F22CBF073408031151
:1009E8000318013E0319F92CC00735080311031831
:1009F800013E0319002DC1070830B2000310B90DDC
:100A0800BA0DBB0DBC0DB20B022D2B08F2002E083F
:100A18000A168A11A2250A128A117308831203136F
:100A2800C3007208C2004208B2004308B300B40110
:100A3800B5013208B907330803110318013E031939
:100A4800262DBA07340803110318013E03192D2D6A
:100A5800BB07350803110318013E0319342DBC07E1
:100A68002A08F2002F080A168A11A2250A128A11EA
:100A7800730883120313C3007208C2004208B2004D
:100A88004308B300B401B5013208B90733080311AC
:100A98000318013E0319512DBA073408031103182E
:100AA800013E0319582DBB07350803110318013EF1
:100AB80003195F2DBC070830B2000310B90DBA0D39
:100AC800BB0DBC0DB20B612D2A08F2002E080A16C8
:100AD8008A11A2250A128A11730883120313C3000C
:100AE8007208C2004208B2004308B300B401B5015D
:100AF8003208B907330803110318013E0319852D7D
:100B0800BA07340803110318013E03198C2DBB07DB
:100B1800350803110318013E0319932DBC072B0850
:100B2800F20030080A168A11A2250A128A117308DF
:100B380083120313C3007208C2004208B2004308BC
:100B4800B300B401B5013208BE0733080311031816
:100B5800013E0319B02DBF07340803110318013EE5
:100B68000319B72DC007350803110318013E0319EF
:100B7800BE2DC1072C08F2002F080A168A11A225DB
:100B88000A128A11730883120313C3007208C20081
:100B98004208B2004308B300B401B5013208BE07E9
:100BA800330803110318013E0319DB2DBF0734086E
:100BB80003110318013E0319E22DC007350803117C
:100BC8000318013E0319E92DC1072C08F20030086B
:100BD8000A168A11A2250A128A11730883120313AE
:100BE800C3007208C2004208B2004308B300B4014F
:100BF800B50108300310B20DB30DB40DB50DFF3EAD
:100C0800031DFE2D3208BE07330803110318013EE9
:100C180003190F2EBF07340803110318013E0319E7
:100C2800162EC007350803110318013E03191D2E9F
:100C3800C1073908B2003A08B3003B08B4003C08C1
:100C4800B50018300310B50CB40CB30CB20CFF3E51
:100C5800031D262E3208BE07330803110318013E70
:100C68000319372EBF07340803110318013E03196F
:100C78003E2EC007350803110318013E0319452EFF
:100C8800C1070830B2000310B90DBA0DBB0DBC0D79
:100C9800B20B472E3D083807B200B301B30D320836
:100CA800823EC20033080318013EFF3EC300792E7E
:100CB8000130B2000310BE0DBF0DC00DC10DB20B47
:100CC8005E2EBC1F682E692E6A2E3E140130B200BB
:100CD8000310B90DBA0DBB0DBC0DB20B6C2EFF3055
:100CE800C2070318C30AFF30C307C01F7C2E7D2E1E
:100CF8005C2EB801BC1F812E822E9E2EFF30390536
:100D0800B200FF303A05B300FF303B05B4007F3036
:100D18003C05B50035083404330432040319952E14
:100D2800962E992E0130B8009E2E3E1C9C2E9D2E8C
:100D38009E2E962E38080319A22EA32ED42E0130EB
:100D4800BE07003003180130BF0700300318013018
:100D5800C007003003180130C107411CB42EB52E5E
:100D6800D42E3E08B2003F08B3004008B400410842
:100D7800B5000130B600350DB50CB40CB30CB20C8F
:100D8800B60BBF2E3508C1003408C0003308BF00B9
:100D98003208BE000130C2070318C30A0030C30777
:100DA8004308803AFF0080307F02031DDD2EFF30AC
:100DB8004202031CE02EE12EEC2E7F308312031337
:100DC800C1008030C0000030BF000030BE001D2FC1
:100DD800831203134308803AFF0080307F02031D0B
:100DE800F72E013042020318FA2EFB2E072F00308F
:100DF80083120313C1000030C0000030BF00003070
:100E0800BE00B7011D2F831203134208BD00FF3037
:100E1800BE05FF30BF057F30C0050030C1053D1C51
:100E2800162F172F182FC0173D08B2000310320CC9
:100E3800C1003708C1044108AD004008AC003F08B4
:100E4800AB003E08AA00080083120313A40024087C
:100E580003192F2F302F442FF51F332F342F442FF2
:100E68007209A6007309A7007409A8007509A900EA
:100E7800A60A0319A70A0319A80A0319A90A4C2FD5
:100E88007508A9007408A8007308A7007208A600CE
:100E98007508740473047204031D532F542F5D2FB7
:100EA8000030F5000030F4000030F3000030F200AC
:100EB800DD2F9630A5006B2F0130A50701300310F8
:100EC800A90CA80CA70CA60CFF3E031D632FFE302F
:100ED8002905031D702F712F602F8B2F0130A50757
:100EE8000130A607003003180130A70700300318A7
:100EF8000130A807003003180130A907013003109A
:100F0800A90CA80CA70CA60CFF3E031D832FFF30CD
:100F18002905031D902F912F722F9D2F0130A502B7
:100F28000130A0000310A60DA70DA80DA90DA00B58
:100F3800962FA81BA02FA12FA72F02302502031838
:100F4800A62FA72F922F2518AA2FAB2FB32FFF302C
:100F5800A605FF30A7057F30A805FF30A9050310B7
:100F6800A50C2508A000A101A201A30118300310B7
:100F7800A00DA10DA20DA30DFF3E031DBB2F200840
:100F8800A6042108A7042208A8042308A904240801
:100F98000319CF2FD02FD52FF51FD32FD42FD52F0F
:100FA800A9172908F5002808F4002708F3002608DF
:100FB800F2000800743491347A3491340B3491344B
:100FC8005B349134F53490340034913433349134B3
:100FD80015349134293491343C3491341F3491348C
:100FE800EA3490348A3491348F34913454349134BF
:080FF8008534913493349134E7
:101006000134003483120313A101F31F0B280C28AB
:101016001328F209F309F20A0319F30A0130A100B1
:10102600F51F162817281E28F409F509F40A0319CE
:10103600F50A0130A106A201A3017208730403197F
:10104600252826285B280130A0003228013003100D
:10105600F20DF30DFF3E031D2A280130A007F31FF2
:1010660035283628292801300310A20DA30DFF3E8E
:10107600031D372873087502031D4328720874027E
:10108600031C462847284E287208F4027308031CDE
:10109600F503F502221401300310F30CF20CFF3EA7
:1010A600031D4F280130A002031D5A285B2836284D
:1010B600210803195F2860286528A209A309A20A46
:1010C6000319A30A2308F3002208F200080083127A
:1010D6000313A8012808803EF800FF300A168A117B
:1010E6000D250A128A15013083120313A807103042
:1010F6002802031C7F2880286D282330F6009030B4
:10110600F700C030F8000A168A11CB250A128A1594
:101116000030F6009030F7009030F8000A168A1179
:10112600CB250A128A1583120313A9012908D03E7A
:10113600F800FF300A168A110D250A128A150130A9
:1011460083120313A90710302902031CAB28AC280D
:101156009928AA012A08803EF800FF300A168A114B
:101166000D250A128A15831203132A08D03EF800A9
:10117600FF300A168A110D250A128A1503308312CA
:101186000313A7008A30A6005530A500A50BC92871
:10119600A60BC928A70BC928831203132A08803E69
:1011A600F80020300A168A110D250A128A158312B4
:1011B60003132A08D03EF80020300A168A110D259E
:1011C6000A128A15013083120313AA0710302A0265
:1011D600031CEE28EF28AD281A3083120313A7004C
:1011E6005E30A6006D30A500A50BF728A60BF728E4
:1011F600A70BF728FE2808000030831203134C05BE
:10120600D40000304D05D50080304E05D6007F3025
:101216004F05D7005708560455045404031D1429D6
:1012260015291D290030CF000030CE000030CD003A
:101236000030CC0000305005D40000305105D500F8
:1012460080305205D6007F305305D7005708560424
:1012560055045404031D3029312939290030D3009F
:101266000030D2000030D1000030D000CF1F3C2922
:101276003D2961290030D4000030D5000030D60069
:101286008030D7004C08D4024D08031C4D0F4C2962
:101296004D29D5024E08031C4E0F52295329D6025A
:1012A6004F08031C4F0F58295929D7025708CF005A
:1012B6005608CE005508CD005408CC00D31F64292B
:1012C600652989290030D4000030D5000030D600C9
:1012D6008030D7005008D4025108031C510F7429DE
:1012E6007529D5025208031C520F7A297B29D6028A
:1012F6005308031C530F80298129D7025708D300AE
:101306005608D2005508D1005408D0008030CF06C8
:101316008030D30653084F02031D9B2952084E0204
:10132600031D9B2951084D02031D9B2950084C02A1
:1013360003189E299F29A1290310A2290314080036
:1013460083120313A70010306B06031DAB29AC29CB
:10135600B2290A168A11ED240A128A15FB013730C2
:10136600831203132706031DB929BA29C829013098
:10137600FB070C307B06031DC129C229C329FB01CB
:101386000A168A11ED240A128A157630F600903074
:10139600F7008030F8000A168A11CB250A128A1542
:1013A600C030F8003E300A168A110D250A128A1539
:1013B6000A307B020318E029E129212A7B088312DF
:1013C6000313A5002507A03E840083130008F6003A
:1013D600840A00088403F700C230F8000A168A114E
:1013E600CB250A128A157B0883120313A50025074D
:1013F600A23E840083130008F600840A00088403D2
:10140600F7009230F8000A168A11CB250A128A15BF
:101416007B0883120313A5002507A43E84008313CB
:101426000008F600840A00088403F700D230F800AA
:101436000A168A11CB250A128A15942A0A307B06C7
:10144600031D262A272A5F2A7B0883120313A50079
:101456002507A03E840083130008F600840A0008CE
:101466008403F700C230F8000A168A11CB250A1247
:101476008A157B0883120313A5002507A23E840064
:1014860083130008F600840A00088403F7009230EC
:10149600F8000A168A11CB250A128A158316031339
:1014A6002008F6002108F700D230F8000A168A1143
:1014B600CB250A128A15942A0B307B06031D642A53
:1014C600652A942A7B0883120313A5002507A03EEC
:1014D600840083130008F600840A00088403F700DA
:1014E600C230F8000A168A11CB250A128A1583160D
:1014F60003132008F6002108F7009230F8000A16B8
:101506008A11CB250A128A15831603132208F600C0
:101516002308F700D230F8000A168A11CB250A12E2
:101526008A15080083120313A70011306B06031DEA
:101536009D2A9E2AA42AFA010A168A11ED240A1265
:101546008A153730831203132706031DAB2AAC2AEC
:10155600BA2A0130FA0705307A06031DB32AB42ADF
:10156600B52AFA010A168A11ED240A128A15D33011
:10157600F6009030F7008030F8000A168A11CB2565
:101586000A128A15C030F8003E300A168A110D2557
:101596000A128A1503307A020318D22AD32A132B89
:1015A6007A0883120313A5002507B83E8400831327
:1015B6000008F600840A00088403F700C230F80029
:1015C6000A168A11CB250A128A157A088312031382
:1015D600A5002507BA3E840083130008F600840A96
:1015E60000088403F7009230F8000A168A11CB250A
:1015F6000A128A157A0883120313A5002507BC3E32
:10160600840083130008F600840A00088403F700A8
:10161600D230F8000A168A11CB250A128A15862BB3
:1016260003307A06031D182B192B512B7A088312C7
:101636000313A5002507B83E840083130008F600AF
:10164600840A00088403F700C230F8000A168A11DB
:10165600CB250A128A157A0883120313A5002507DB
:10166600BA3E840083130008F600840A0008840347
:10167600F7009230F8000A168A11CB250A128A154D
:10168600831603133808F6003908F700D230F8003D
:101696000A168A11CB250A128A15862B04307A0679
:1016A600031D562B572B862B7A0883120313A5008E
:1016B6002507B83E840083130008F600840A000854
:1016C6008403F700C230F8000A168A11CB250A12E5
:1016D6008A15831603133808F6003908F700923086
:1016E600F8000A168A11CB250A128A1583160313E7
:1016F6003A08F6003B08F700D230F8000A168A11BD
:10170600CB250A128A1508005B2C2130831203139D
:10171600EA00E901812C293083120313EA008C2B9D
:101726002D3083120313EA008C2B7A08003A031932
:101736008E2B013A0319882B033A03198E2B013A93
:101746000319932B073A0319932B812C2B30831201
:101756000313EA00E901323083120313EA00E901B8
:10176600812C393083120313EA008C2B7A08003A55
:101776000319AE2B013A0319A92B033A0319AE2B11
:10178600013A0319B42B073A0319B42B812C1A30EA
:1017960083120313EA008C2B1F3083120313EA0013
:1017A6008C2B7A08003A0319CA2B013A0319CA2B63
:1017B600033A0319CA2B013A0319CF2B073A031927
:1017C600CF2B812C103083120313EA000130E9007D
:1017D600812C243083120313EA000130E9001C3007
:1017E60083120313EA008C2B1D3083120313EA00C5
:1017F600812C2E3083120313EA00E901353083125F
:101806000313EA00E901812C3C3083120313EA003A
:101816008C2B7A08003A0319012C013A0319FC2B88
:10182600033A0319012C013A0319072C073A031945
:10183600072C812C123083120313EA00E901232CB2
:10184600143083120313EA00E901812C7A08003A66
:101856000319232C013A03191D2C033A0319232CCF
:10186600013A0319232C073A0319232C812C06303D
:1018760083120313EA00812C103083120313EA004B
:10188600E901153083120313EA00E901812C7A0875
:10189600003A0319442C013A03193F2C033A031961
:1018A600442C013A0319CA2B073A0319CA2B812C77
:1018B6007B08003A0319982B013A0319B92B033A0E
:1018C6000319D42B013A0319E52B073A0319EC2B1C
:1018D600013A0319F22B033A0319F72B013A0319BC
:1018E6000C2C0F3A0319292C013A03193A2C033A06
:1018F60003194A2C013A03194A2C812C080001309D
:1019060083120313EC001030EB000A168A1122250D
:101916000A128A155630F6009030F7008030F8002B
:101926000A168A11CB250A128A151230F600903053
:10193600F700C030F8000A168A11CB250A128A155C
:101946004530F6009030F7009030F8000A168A11FC
:10195600CB250A128A15C32CB83083160313C2008E
:101966000B30C300FF30C2070318C30AFF30C3079A
:10197600420A031DC22C430A031DC22CC32CB52CDC
:1019860001300A168A1128270A128A152F3A031DD2
:10199600CD2CCE2CAF2C0A168A11ED240A128A15EC
:1019A6000A128A156A200A128A1501300A168A1145
:1019B60028270A128A1583160313C600B830C400F6
:1019C6000B30C500FF30C4070318C50AFF30C50732
:1019D600440A031DF22C450A031DF22CF32CE52CB8
:1019E600B7304606031DF82CF92C052D8312031378
:1019F6006C03031DFF2C002D052D0230EC00113069
:101A0600EB00922DB730831603134606031D0C2DEB
:101A16000D2D452D0230831203136C06031D142D64
:101A2600152D452D0A128A1587230A128A150A16BC
:101A36008A11ED240A128A15AE30F6009030F700AE
:101A46008030F8000A168A11CB250A128A159430BE
:101A5600F6009030F700C030F8000A168A11CB2540
:101A66000A128A15BB30F6009030F7009030F80065
:101A76000A168A11CB250A128A150330831203131C
:101A8600EC00922D2F30831603134606031D4C2DB2
:101A96004D2D5A2D0530831203136C06031D542D4C
:101AA600552D5A2D121507150430EC00922D922D46
:101AB6008316031346080A128A15A3210A128A15E9
:101AC600A12D8316031346080A128A1595220A12B7
:101AD6008A15A12D2F30831603134606031D742D78
:101AE600752D7C2D043083120313EC001230EB00AD
:101AF600D82C1F304606031D812D822DA12D0130C5
:101B060083120313EC001030EB00D82C831603135A
:101B160046080A128A1143200A128A15A12D831239
:101B26006C08013A03195B2D033A0319642D013A37
:101B360003196D2D073A0319892DA12D831203135D
:101B4600EB01D82C0A128A110C28831203132308DE
:101B5600F2008030F2052308A8002807F400A21F2F
:101B6600B52DB62DB72D741474080319BB2DBC2DD5
:101B7600CC2D740A031DC02DC12DC92D0030A30024
:101B86000030A2000030A1000030A000A217A3017F
:101B9600D42D0030A3000030A2000030A100003098
:101BA600A0002708F3008030F305730872060319B6
:101BB600DD2DDE2DDF2D72172708A8002807F3007C
:101BC600A61FE62DE72DE82D731473080319EC2DD7
:101BD600ED2DFD2D730A031DF12DF22DFA2D00308A
:101BE600A7000030A6000030A5000030A400A6170C
:101BF600A701052E0030A7000030A6000030A50082
:101C06000030A4007408730203180A2E0B2E2F2E20
:101C1600721F0E2E0F2E112E8030F2067408F5005C
:101C26007308F4007508F3002008F5002408A000E6
:101C36007508A4002108F5002508A1007508A5006F
:101C46002208F5002608A2007508A6002308F5005C
:101C56002708A3007508A700F5017308A800A901C5
:101C66002908AB0074082802AA00031CAB032B0842
:101C7600803AFF0080307F02031D432E1A302A026D
:101C8600031C462E472E802E83120313230822049C
:101C960021042004031D502E522E0130532E0030F5
:101CA600F5000030A3000030A2000030A100003093
:101CB600A0007308F400862E751C622E632E6C2E0F
:101CC600750883120313A8000310280C0138F500C9
:101CD6006E2E0310F50C83120313201C732E742E24
:101CE600752EF5170130A800230DA30CA20CA10C2C
:101CF600A00CA80B772E0130F40773087402031C9E
:101D0600852E862E5F2E721B892E8A2ED52E74085E
:101D1600031D8E2E8F2E9A2E003083120313A300DE
:101D26000030A2000030A1000030A000FF2F831277
:101D360003132408A007250803110318013E0319FD
:101D4600A52EA107260803110318013E0319AC2E80
:101D5600A207270803110318013E0319B32EA30790
:101D6600231CB62EB72E8B2F751CBA2EBB2EC22E59
:101D76007508A8000310280C0138F500C42E0310BE
:101D8600F50C201CC72EC82EC92EF5170130A80049
:101D9600230DA30CA20CA10CA00CA80BCB2E01307A
:101DA600F4078B2F831203132308803AFF002708BA
:101DB600803A7F02031DE92E26082202031DE92E22
:101DC60025082102031DE92E240820020318EC2E03
:101DD600ED2E442FFF30A800FF30A900FF30AA00E7
:101DE600FF30AB002408AC002508AD002608AE0085
:101DF6002708AF002008AC022108031C210F042F7E
:101E0600052FAD022208031C220F0A2F0B2FAE024C
:101E16002308031C230F102F112FAF022C08A8072D
:101E26002D0803182D0F182F192FA9072E08031890
:101E36002E0F1E2F1F2FAA072F0803182F0AAB07D6
:101E46002B08A3002A08A2002908A1002808A00040
:101E56008030F2067503FF3AF5007508031D342F2E
:101E6600352F522F0130A007003003180130A1078B
:101E7600003003180130A207003003180130A30711
:101E8600522F2408A0022508031C250FA1022608AC
:101E9600031C260FA2022708031C270FA3022308F0
:101EA600220421042004031D592F5A2F872F750859
:101EB600031D5E2F5F2F872F0030A3000030A20086
:101EC6000030A1000030A000FF2F0130A800031051
:101ED600A00DA10DA20DA30DA80B6A2FF51F742F3F
:101EE600752F762F2014751C792F7A2F7E2F0314C9
:101EF600750DF500802F0310F50D74080319842F56
:101F0600852F872F0130F402A21F8A2F8B2F682F6F
:101F1600F301F51F8F2F902F9E2F75087F39031918
:101F2600952F962F992F0130F3009E2F201C9C2F62
:101F36009D2F9E2F962F73080319A22FA32FD52FFF
:101F46000130A007003003180130A1070030031844
:101F56000130A207003003180130A307231CB42F59
:101F6600B52FD52F2008A8002108A9002208AA000D
:101F76002308AB000130AC002B0DAB0CAA0CA90C4E
:101F8600A80CAC0BBF2F2B08A3002A08A200290817
:101F9600A1002808A000740A0319D22FD32FD52F29
:101FA6000130F407740A0319D92FDA2FDF2F7408CA
:101FB600031DDE2FDF2FED2F0030A3000030A2001F
:101FC6000030A1000030A0007408031DEB2FEC2F99
:101FD600ED2FF201741CF02FF12FF32FA217F52F1E
:101FE6007F30A2057408A8000310280CA300F21F76
:101FF600FD2FFE2FFF2FA31708002034573461341E
:102006007334683469346E34673420344D34613443
:102016006334683469346E346534203400342034D3
:1020260020342034203450346F347734653472349D
:1020360020344F344E3420342034203420340034BD
:102046002034203450346F34773465347234693434
:102056006E34673420344F344E34203420342034E8
:10206600003435342D3453345434413452345434DA
:102076002034203436342D345034413455345334DE
:102086004534003420345734613473346834693449
:102096006E34673420344D346134633468346934C3
:1020A6006E346534003420345034723465347334FD
:1020B60073342034533457343534203454346F3425
:1020C600203420340034503472346F3467342E3464
:1020D600203443346F346D3470346C346534743466
:1020E6006534643400345734613473346834693485
:1020F6006E3467342034503472346F34673472343B
:1021060061346D340034523465346D346F34763452
:102116006534203443346C346F3474346834733427
:10212600003420345334573435343A34203453345D
:1021360054344134523454342034003450346C34E2
:102146006534613473346534203443346C346F340D
:1021560073346534003450347234653473347334F4
:102166002034533477346934743463346834003437
:1021760020345334573436343A34203453345434B8
:102186004F3450342034003444344F344F345234B6
:1021960020343A3420344F34503445344E340034ED
:1021A6005734613474346534723420344C346534B5
:1021B600763465346C340034463475346E346334A6
:1021C600743469346F346E3420342D340034413421
:1021D6007134753461342034733474346F3472342A
:1021E6006534003453347434613469346E342034C5
:1021F60057346134733468340034453463346F348F
:1022060043346F34743474346F346E34733400343E
:10221600443465346C3469346334613474346534FD
:10222600733400344234653464345334683465346A
:102236006534743473340034573461347334683419
:1022460020344F346E346C3479340034523469346B
:102256006E34733465342B34443472347934003438
:1022660057346F346F346C346C3465346E34733475
:10227600003444347234793420346F346E346C3420
:102286007934003428344D344D343A34533453348D
:1022960029340034503472346F3467343A3420347D
:1022A60000344D3465346434693475346D34003427
:1022B60057346834693474346534733400345334B1
:1022C600703469346E3420340034543469346D34D7
:1022D60065343A340034523469346E3473346534B8
:1022E60000344434613469346C347934003448340D
:1022F60065346134763479340034543449344D3499
:102306004534003448346934673468340034413421
:10231600753474346F3400344C346F34773400348D
:102326004D34613478340034FF1BA12983137F18A0
:1023360083170008840A0319FF0A08007F087F39FB
:0C2346008A000408840A0319FF0A8200C0
:10299E008316031306083F388600080083160313B8
:1029AE008801091189100A168A1134260A168A110D
:1029BE0008008312031312149214FA3083160313B1
:1029CE0092008C148312031312110800F2010130CD
:1029DE000A168A1138250A168A11A630F600F60B49
:1029EE00F62C000008007E088A007F0882000A1676
:1029FE008A11FA240A168A118000840A04087D06B8
:102A0E0003190034FF0A0319FE0AFE2C8312031366
:102A1E00A400F20178080A168A1138250A168A11BE
:102A2E00F201F20A8312031324080A168A113825BA
:102A3E000A168A1108000A168A11D5240A168A1156
:102A4E000A168A11CF240A168A110A168A11E02450
:102A5E000A168A1183160313071187100B178B178B
:102A6E000800F5007208031D3D2D412D831203133E
:102A7E000915442D83120313091175088800891452
:102A8E00A630F300F30B492D0000831203138910B7
:102A9E001B30F4009E30F300F30B532DF40B532D2B
:102AAE0000000800803083120313C7064B08A300F2
:102ABE004A08A2004908A1004808A0004708A7003C
:102ACE004608A6004508A5004408A4000A128A1567
:102ADE00A8250A168A11831203132308C700220899
:102AEE00C6002108C5002008C4000800F601F70141
:102AFE00721C822D832D892D7408F6070318F70A90
:102B0E007508F70701300310F40DF50DFF3E031D98
:102B1E008A2D01300310F30CF20CFF3E031D912D94
:102B2E0072087304031D9C2D9D2D7F2D7708F300D5
:102B3E007608F200080083120313A400A001A1017D
:102B4E007208F400F5017408A2007508A300241C95
:102B5E00B12DB22DB82D2208A0070318A10A230803
:102B6E00A10701300310A20DA30DFF3E031DB92DC9
:102B7E000310A40C2408031DC52DC62DAE2D21084F
:102B8E00F3002008F2000800F20178080A168A11F4
:102B9E0038250A168A11E92DF201F20A7708FF008C
:102BAE00760884000A168A1197210A168A110A16C7
:102BBE008A1138250A168A110130F6070318F70A0A
:102BCE000030F707770883120313FF00760884009E
:102BDE000A168A1197210A168A11003A031DF82D3A
:102BEE00F92DD32D0800831203138C1CFF2D002EFC
:102BFE002D2E013083160313C9070318CA0A00309D
:102C0E00CA07E2304906043003194A06031D102E86
:102C1E00112E2B2EC901CA01831203136A08031940
:102C2E00192E1A2E1D2E0130EA022B2E6A08031DB4
:102C3E00212E222E2B2E69080319262E272E2B2EFF
:102C4E000130E9023B30EA0083128C1071088A00D1
:102C5E00700E8300FE0E7E0E0900C330F700CD30DD
:102C6E00F600F60B382EF70B382EF20133300A161B
:102C7E008A1138250A168A111B30F7009E30F6008D
:102C8E00F60B472EF70B472E0000F20133300A16D3
:102C9E008A1138250A168A11A630F600F60B552E23
:102CAE000000F20133300A168A1138250A168A11ED
:102CBE00602E612E0000F20101300A168A113825AD
:102CCE000A168A11A630F600F60B6B2E0000F201E2
:102CDE000C300A168A1138250A168A11A630F6000B
:102CEE00F60B772E00000800831203130618802EB1
:102CFE00812ED02E0715071112110A168A11ED24F6
:102D0E000A168A11C730F6009030F7008030F800AE
:102D1E000A168A11CB250A168A11A130F6009030B8
:102D2E00F7009030F8000A168A11CB250A168A1180
:102D3E0083120313061CA42EA52E9F2E0A168A118B
:102D4E00ED240A168A1183120313071512150711A3
:102D5E00DF30F6009030F7008030F8000A168A1146
:102D6E00CB250A168A118030F6009130F700C0305C
:102D7E00F8000A168A11CB250A168A113430F6008D
:102D8E009030F700D030F8000A168A11CB250A16BB
:102D9E008A110800F701F51FD52ED62EDD2EF40967
:102DAE00F509F40A0319F50A0130F700F31FE02EB6
:102DBE00E12EE62EF209F309F20A0319F30A72085C
:102DCE0073040319EB2EEC2E192F0130F600F82E9A
:102DDE0001300310F20DF30DFF3E031DF02E0130F6
:102DEE00F607F31FFB2EFC2EEF2E73087502031D44
:102DFE00022F72087402031C052F062F0C2F720867
:102E0E00F4027308031CF503F50201300310F30CF2
:102E1E00F20CFF3E031D0D2F0130F602031D182F7D
:102E2E00192FFC2E770803191D2F1E2F232FF4099F
:102E3E00F509F40A0319F50A7508F3007408F2008F
:102E4E000800F3007308031D2D2F2E2F332F83122E
:102E5E00031306083F39892F3F30831203130605EB
:102E6E00F2003F30720603193D2F3E2F4C2F6D0896
:102E7E006E040319432F442F4C2FED01EE01E80190
:102E8E000608F9003F30F905882F6D086E04031D02
:102E9E00512F522F622F06083F397906031D582FE6
:102EAE00592F622F1430680203185E2F5F2F622F86
:102EBE000130E807882F14306806031D672F682F2E
:102ECE006D2F0130E80779088038892F3F300605CD
:102EDE00F2003F307206031D752F762F882F6D0876
:102EEE006E04031D7B2F7C2F882F0130ED000030E8
:102EFE00EE00143068020318852F862F882F79086C
:102F0E00892F3F300800031083120313460D470D1F
:102F1E00F7007708031D942F952F9E2F0030C700C2
:102F2E000030C6000030C5000030C400FF2F44083A
:102F3E00C8004508C9004608CA004708CB001F3024
:102F4E000310CB0CCA0CC90CC80CFF3E031DA72FD7
:102F5E004808F600C617FF30C405FF30C505FF3020
:102F6E00C6050030C7059630F702F71FBF2FC02FDA
:102F7E00D82F7708803A973E0318C62FC72FC82F31
:102F8E00952F01300310C70CC60CC50CC40CFF3EA8
:102F9E00031DC92F0130F707031DD62FD72FC82FBA
:102FAE00EF2F20307702031CDD2FDE2FEA2F952F17
:102FBE000130C8000310C40DC50DC60DC70DC80BDA
:102FCE00E12F0130F7027708031DEE2FEF2FDF2FD1
:102FDE0076080319F32FF42FFF2FC409C509C6096C
:102FEE00C709C40A0319C50A0319C60A0319C70A71
:022FFE000800C9
:02400E00FB3F76
:00000001FF
